S1130000C20A6800024A80026800084A800260004E
S11300100E4280014A01006000174280014A01013A
S11300206800204201014A8002420100D2106800A7
S1130030294A8002C2006800344A8002C20A680069
S11300403C4A80026000444280014A010260004D43
S11300504280014A01036800564201034A80024279
S11300600102D21068005F4A8002C20968006C4A2B
S11300708002C20A6800744A800241010040010102
S113008042010229420103283AC30A3CE805D1018E
S1130090580095D00A3DE805D2015800B0D10A684D
S11300A0009F4880026800A5D1104980025800C40E
S11300B06800B04880026800B64980026800BCD27B
S10A00C0104A800258000001
S9030000FC